:020000042001D9
:10780000554D4F440001010002000000000000003F
:107810004B780120AD780120477801204378012082
:1078200005790120000000000000000000000000B9
:107830000000000000000000000000000000000048
:1078400070477047704770477047104B104A2DE9DA
:10785000F041884607460021934202D003F8011FF9
:10786000FAE70C4B0C4CE41AA41000251E46A54266
:1078700005D056F8253003B198470135F7E7414662
:10788000384600F00BF8BDE8F08100BF2F790120E9
:107890002F7901204078012040780120024B4FF0E1
:1078A0007E521A60704700BF28790120144B93ED77
:1078B000014AD3ED004A009BB2EE045A5A00F7EE9B
:1078C000005A0023B6EE006AF7EE086A934215D01C
:1078D000B0EE657AF0EC017AA4EE857A013364EEBD
:1078E000277A67EE877A27EEA77A27EE277A26EEA1
:1078F000477AA7EEA67AA1EC017AE7E7704700BFC6
:107900002879012007EE901AFAEEE07A10B10128EA
:1079100004D07047034BC3ED007A7047014BC3EDB1
:08792000017A7047287901206B
:087928000000003F0000003FD9
:040000052001784B13
:00000001FF
