:020000042001D9
:10780000554D4F440001010002000000000000003F
:107810004B780120AD780120477801204378012082
:10782000FD780120000000000000000000000000C2
:107830000000000000000000000000000000000048
:1078400070477047704770477047104B104A2DE9DA
:10785000F041884607460021934202D003F8011FF9
:10786000FAE70C4B0C4CE41AA41000251E46A54266
:1078700005D056F8253003B198470135F7E7414662
:10788000384600F00BF8BDE8F08100BF1F790120F9
:107890001F7901204078012040780120024B4FF0F1
:1078A0007E521A60704700BF18790120124BD3ED49
:1078B000004A009BB2EE045A5A00F7EE005A002329
:1078C000B6EE006AF7EE086A934213D0F0EE657ADE
:1078D000E4EE857A0133B0EC017A67EE877A27EE21
:1078E000A77A27EE277A26EE477AA7EEA67AA1ECAA
:1078F000017AE9E7704700BF1879012007EE901A76
:1079000020B9FAEEE07A024BC3ED007A704700BF6F
:0479100018790120C1
:087918000000003F0000000028
:040000052001784B13
:00000001FF
