:020000042001D9
:10780000554D4F440001010002000000000000003F
:107810004B780120AD780120477801204378012082
:1078200019790120000000000000000000000000A5
:107830000000000000000000000000000000000048
:1078400070477047704770477047104B104A2DE9DA
:10785000F041884607460021934202D003F8011FF9
:10786000FAE70C4B0C4CE41AA41000251E46A54266
:1078700005D056F8253003B198470135F7E7414662
:10788000384600F00BF8BDE8F08100BF37790120E1
:10789000377901204078012040780120024B4FF0D9
:1078A0007E521A60704700BF30790120174A009B52
:1078B0009FED177A92ED004ADFED165A01EBC303F4
:1078C000F2EE044AB7EE005AB0EE476A8B421CD97A
:1078D000F0EE457AE4EE247AF0EC016A67EEA67ADF
:1078E00077EE876AF5EEC06AF1EE10FAB8BFF0EEF7
:1078F000657A77EEC66AF5EE406AF1EE10FAA8BF37
:10790000F0EE477AE1EC017AE0E770473079012048
:107910009A99193E9A9919BE07EE901A20B9FAEE73
:10792000E07A024BC3ED007A704700BF3079012046
:087930000000003F0000000010
:040000052001784B13
:00000001FF
