:020000042001D9
:10780000554D4F440001010002000000000000003F
:107810004B7801209F780120477801204378012090
:1078200015790120000000000000000000000000A9
:107830000000000000000000000000000000000048
:1078400070477047704770477047104B104A2DE9DA
:10785000F041884607460021934202D003F8011FF9
:10786000FAE70C4B0C4CE41AA41000251E46A54266
:1078700005D056F8253003B198470135F7E7414662
:10788000384600F00BF8BDE8F08100BF3F790120D9
:107890003F7901204078012040780120704710B5E1
:1078A000029B1B4A5C08D2ED006A92ED016A04312A
:1078B0005A00F2EE045A0023B7EE005AF6EE004AE0
:1078C000B7EE084A934221D0B0EE457AA6EEA57AEB
:1078D0009C4201F10401F0EC017AF0EE673AD7EE38
:1078E000873A03F10103E3EE867AB0EE637A81BF53
:1078F00027EEA77A27EE277A24EEC77AA7EE847AB6
:1079000088BFF0EE477A41ED027ADBE710BD00BF99
:107910003879012007EE901AFAEEE07A10B10128CA
:1079200004D07047034BC3ED007A7047014BC3EDA1
:08793000017A7047387901204B
:087938000000003F0000003FC9
:040000052001784B13
:00000001FF
