:020000042001D9
:10780000554D4F440001010002000000000000003F
:107810004B7801209F780120477801204378012090
:10782000F9780120000000000000000000000000C6
:107830000000000000000000000000000000000048
:1078400070477047704770477047104B104A2DE9DA
:10785000F041884607460021934202D003F8011FF9
:10786000FAE70C4B0C4CE41AA41000251E46A54266
:1078700005D056F8253003B198470135F7E7414662
:10788000384600F00BF8BDE8F08100BF27790120F1
:107890002779012040780120407801207047154B5E
:1078A00093ED004AD3ED015A009BF2EE044A5A00D0
:1078B000B7EE005A0023B6EE006AF7EE086A93426C
:1078C00017D0B0EE457AA4EE247A0133F0EC017AB9
:1078D000F0EE673AD7EE873AE3EEA57A27EEA77A7D
:1078E00027EE277A26EE477AA7EEA67AA1EC017A50
:1078F000E5E770472079012007EE901AFAEEE07A6A
:1079000010B1012804D07047034BC3ED007A7047D3
:0C791000014BC3ED017A70472079012083
:087920000000003F0000003FE1
:040000052001784B13
:00000001FF
